{
  "_format": "hh-sol-artifact-1",
  "contractName": "Presaler",
  "sourceName": "contracts/Presaler.sol",
  "abi": [
    {
      "inputs": [
        {
          "internalType": "address payable",
          "name": "admin_",
          "type": "address"
        },
        {
          "internalType": "uint16",
          "name": "usageFeeBPS_",
          "type": "uint16"
        },
        {
          "internalType": "contract IUniswapV2Router02",
          "name": "uniswap_",
          "type": "address"
        }
      ],
      "stateMutability": "nonpayable",
      "type": "constructor"
    },
    {
      "anonymous": false,
      "inputs": [
        {
          "indexed": false,
          "internalType": "address",
          "name": "creator",
          "type": "address"
        }
      ],
      "name": "PresaleCreated",
      "type": "event"
    },
    {
      "anonymous": false,
      "inputs": [
        {
          "indexed": true,
          "internalType": "bytes32",
          "name": "role",
          "type": "bytes32"
        },
        {
          "indexed": true,
          "internalType": "bytes32",
          "name": "previousAdminRole",
          "type": "bytes32"
        },
        {
          "indexed": true,
          "internalType": "bytes32",
          "name": "newAdminRole",
          "type": "bytes32"
        }
      ],
      "name": "RoleAdminChanged",
      "type": "event"
    },
    {
      "anonymous": false,
      "inputs": [
        {
          "indexed": true,
          "internalType": "bytes32",
          "name": "role",
          "type": "bytes32"
        },
        {
          "indexed": true,
          "internalType": "address",
          "name": "account",
          "type": "address"
        },
        {
          "indexed": true,
          "internalType": "address",
          "name": "sender",
          "type": "address"
        }
      ],
      "name": "RoleGranted",
      "type": "event"
    },
    {
      "anonymous": false,
      "inputs": [
        {
          "indexed": true,
          "internalType": "bytes32",
          "name": "role",
          "type": "bytes32"
        },
        {
          "indexed": true,
          "internalType": "address",
          "name": "account",
          "type": "address"
        },
        {
          "indexed": true,
          "internalType": "address",
          "name": "sender",
          "type": "address"
        }
      ],
      "name": "RoleRevoked",
      "type": "event"
    },
    {
      "anonymous": false,
      "inputs": [
        {
          "indexed": false,
          "internalType": "address",
          "name": "buyer",
          "type": "address"
        },
        {
          "indexed": false,
          "internalType": "uint256",
          "name": "tokenAmount",
          "type": "uint256"
        }
      ],
      "name": "TokenBought",
      "type": "event"
    },
    {
      "anonymous": false,
      "inputs": [
        {
          "indexed": false,
          "internalType": "uint256",
          "name": "ethAmount",
          "type": "uint256"
        },
        {
          "indexed": false,
          "internalType": "uint256",
          "name": "tokenAmount",
          "type": "uint256"
        }
      ],
      "name": "UniswapLiquidityAdded",
      "type": "event"
    },
    {
      "inputs": [],
      "name": "DEFAULT_ADMIN_ROLE",
      "outputs": [
        {
          "internalType": "bytes32",
          "name": "",
          "type": "bytes32"
        }
      ],
      "stateMutability": "view",
      "type": "function"
    },
    {
      "inputs": [],
      "name": "admin",
      "outputs": [
        {
          "internalType": "address payable",
          "name": "",
          "type": "address"
        }
      ],
      "stateMutability": "view",
      "type": "function"
    },
    {
      "inputs": [
        {
          "internalType": "uint256",
          "name": "presaleId_",
          "type": "uint256"
        }
      ],
      "name": "buy",
      "outputs": [],
      "stateMutability": "payable",
      "type": "function"
    },
    {
      "inputs": [
        {
          "internalType": "uint16",
          "name": "usageFeeBPS_",
          "type": "uint16"
        }
      ],
      "name": "changeUsageFee",
      "outputs": [],
      "stateMutability": "nonpayable",
      "type": "function"
    },
    {
      "inputs": [
        {
          "internalType": "uint256",
          "name": "presaleId_",
          "type": "uint256"
        }
      ],
      "name": "endPresale",
      "outputs": [],
      "stateMutability": "nonpayable",
      "type": "function"
    },
    {
      "inputs": [
        {
          "internalType": "bytes32",
          "name": "role",
          "type": "bytes32"
        }
      ],
      "name": "getRoleAdmin",
      "outputs": [
        {
          "internalType": "bytes32",
          "name": "",
          "type": "bytes32"
        }
      ],
      "stateMutability": "view",
      "type": "function"
    },
    {
      "inputs": [
        {
          "internalType": "bytes32",
          "name": "role",
          "type": "bytes32"
        },
        {
          "internalType": "address",
          "name": "account",
          "type": "address"
        }
      ],
      "name": "grantRole",
      "outputs": [],
      "stateMutability": "nonpayable",
      "type": "function"
    },
    {
      "inputs": [
        {
          "internalType": "bytes32",
          "name": "role",
          "type": "bytes32"
        },
        {
          "internalType": "address",
          "name": "account",
          "type": "address"
        }
      ],
      "name": "hasRole",
      "outputs": [
        {
          "internalType": "bool",
          "name": "",
          "type": "bool"
        }
      ],
      "stateMutability": "view",
      "type": "function"
    },
    {
      "inputs": [],
      "name": "myPresales",
      "outputs": [
        {
          "internalType": "uint256[]",
          "name": "",
          "type": "uint256[]"
        }
      ],
      "stateMutability": "view",
      "type": "function"
    },
    {
      "inputs": [],
      "name": "presaleId",
      "outputs": [
        {
          "internalType": "uint256",
          "name": "_value",
          "type": "uint256"
        }
      ],
      "stateMutability": "view",
      "type": "function"
    },
    {
      "inputs": [
        {
          "internalType": "uint256",
          "name": "",
          "type": "uint256"
        }
      ],
      "name": "presales",
      "outputs": [
        {
          "internalType": "address",
          "name": "creator",
          "type": "address"
        },
        {
          "internalType": "address",
          "name": "tokenAddress",
          "type": "address"
        },
        {
          "internalType": "uint64",
          "name": "startTime",
          "type": "uint64"
        },
        {
          "internalType": "uint64",
          "name": "endTime",
          "type": "uint64"
        },
        {
          "internalType": "uint256",
          "name": "tokenPrice",
          "type": "uint256"
        },
        {
          "internalType": "uint256",
          "name": "tokenSupply",
          "type": "uint256"
        },
        {
          "internalType": "uint256",
          "name": "ethSupply",
          "type": "uint256"
        }
      ],
      "stateMutability": "view",
      "type": "function"
    },
    {
      "inputs": [
        {
          "internalType": "address",
          "name": "",
          "type": "address"
        },
        {
          "internalType": "uint256",
          "name": "",
          "type": "uint256"
        }
      ],
      "name": "presalesByAddress",
      "outputs": [
        {
          "internalType": "uint256",
          "name": "",
          "type": "uint256"
        }
      ],
      "stateMutability": "view",
      "type": "function"
    },
    {
      "inputs": [
        {
          "internalType": "bytes32",
          "name": "role",
          "type": "bytes32"
        },
        {
          "internalType": "address",
          "name": "account",
          "type": "address"
        }
      ],
      "name": "renounceRole",
      "outputs": [],
      "stateMutability": "nonpayable",
      "type": "function"
    },
    {
      "inputs": [
        {
          "internalType": "bytes32",
          "name": "role",
          "type": "bytes32"
        },
        {
          "internalType": "address",
          "name": "account",
          "type": "address"
        }
      ],
      "name": "revokeRole",
      "outputs": [],
      "stateMutability": "nonpayable",
      "type": "function"
    },
    {
      "inputs": [
        {
          "internalType": "uint64[]",
          "name": "startTimes",
          "type": "uint64[]"
        },
        {
          "internalType": "uint64[]",
          "name": "endTimes",
          "type": "uint64[]"
        },
        {
          "internalType": "uint256[]",
          "name": "tokenPrices",
          "type": "uint256[]"
        },
        {
          "internalType": "address[]",
          "name": "tokenAddresses",
          "type": "address[]"
        },
        {
          "internalType": "uint256[]",
          "name": "tokenSupplies",
          "type": "uint256[]"
        }
      ],
      "name": "startPresale",
      "outputs": [],
      "stateMutability": "nonpayable",
      "type": "function"
    },
    {
      "inputs": [
        {
          "internalType": "bytes4",
          "name": "interfaceId",
          "type": "bytes4"
        }
      ],
      "name": "supportsInterface",
      "outputs": [
        {
          "internalType": "bool",
          "name": "",
          "type": "bool"
        }
      ],
      "stateMutability": "view",
      "type": "function"
    },
    {
      "inputs": [],
      "name": "uniswap",
      "outputs": [
        {
          "internalType": "contract IUniswapV2Router02",
          "name": "",
          "type": "address"
        }
      ],
      "stateMutability": "view",
      "type": "function"
    },
    {
      "inputs": [],
      "name": "uniswapRouterAddress",
      "outputs": [
        {
          "internalType": "address",
          "name": "",
          "type": "address"
        }
      ],
      "stateMutability": "view",
      "type": "function"
    },
    {
      "inputs": [],
      "name": "usageFeeBPS",
      "outputs": [
        {
          "internalType": "uint16",
          "name": "",
          "type": "uint16"
        }
      ],
      "stateMutability": "view",
      "type": "function"
    },
    {
      "inputs": [
        {
          "internalType": "uint256",
          "name": "presaleId_",
          "type": "uint256"
        }
      ],
      "name": "withdraw",
      "outputs": [],
      "stateMutability": "nonpayable",
      "type": "function"
    }
  ],
  "bytecode": "0x60806040523480156200001157600080fd5b5060405162003870380380620038708339818101604052810190620000379190620002fd565b6127108261ffff16111562000083576040517f08c379a00000000000000000000000000000000000000000000000000000000081526004016200007a906200037a565b60405180910390fd5b81600260006101000a81548161ffff021916908361ffff16021790555080600660006101000a81548173ffffffffffffffffffffffffffffffffffffffff021916908373ffffffffffffffffffffffffffffffffffffffff160217905550620000f66000801b846200013f60201b60201c565b826002806101000a81548173ffffffffffffffffffffffffffffffffffffffff021916908373ffffffffffffffffffffffffffffffffffffffff160217905550505050620004b4565b6200015182826200015560201b60201c565b5050565b6200016782826200024660201b60201c565b6200024257600160008084815260200190815260200160002060000160008373ffffffffffffffffffffffffffffffffffffffff1673ffffffffffffffffffffffffffffffffffffffff16815260200190815260200160002060006101000a81548160ff021916908315150217905550620001e7620002b060201b60201c565b73ffffffffffffffffffffffffffffffffffffffff168173ffffffffffffffffffffffffffffffffffffffff16837f2f8788117e7eff1d82e926ec794901d17c78024a50270940304540a733656f0d60405160405180910390a45b5050565b600080600084815260200190815260200160002060000160008373ffffffffffffffffffffffffffffffffffffffff1673ffffffffffffffffffffffffffffffffffffffff16815260200190815260200160002060009054906101000a900460ff16905092915050565b600033905090565b600081519050620002c98162000466565b92915050565b600081519050620002e08162000480565b92915050565b600081519050620002f7816200049a565b92915050565b6000806000606084860312156200031357600080fd5b60006200032386828701620002b8565b93505060206200033686828701620002e6565b92505060406200034986828701620002cf565b9150509250925092565b6000620003626021836200039c565b91506200036f8262000417565b604082019050919050565b60006020820190508181036000830152620003958162000353565b9050919050565b600082825260208201905092915050565b6000620003ba82620003f7565b9050919050565b6000620003ce82620003f7565b9050919050565b6000620003e282620003ad565b9050919050565b600061ffff82169050919050565b600073ffffffffffffffffffffffffffffffffffffffff82169050919050565b7f55736167652066656573206d757374206265206c657373207468616e2031303060008201527f2500000000000000000000000000000000000000000000000000000000000000602082015250565b6200047181620003c1565b81146200047d57600080fd5b50565b6200048b81620003d5565b81146200049757600080fd5b50565b620004a581620003e9565b8114620004b157600080fd5b50565b6133ac80620004c46000396000f3fe60806040526004361061011f5760003560e01c80637dbfb36d116100a0578063d96a094a11610064578063d96a094a146103e9578063e18e84f914610405578063ea4aabd414610430578063f851a4401461045b578063fa359eec146104865761011f565b80637dbfb36d146102ec57806391d148541461032f5780639edf96cb1461036c578063a217fddf14610395578063d547741f146103c05761011f565b80632f2ff15d116100e75780632f2ff15d1461021d57806336568abe1461024657806352e2ac451461026f57806362984e481461029857806363585dd2146102c35761011f565b806301ffc9a71461012457806320ca3c7f14610161578063248a9ca31461018c5780632681f7e4146101c95780632e1a7d4d146101f4575b600080fd5b34801561013057600080fd5b5061014b600480360381019061014691906122bd565b6104c3565b60405161015891906128af565b60405180910390f35b34801561016d57600080fd5b5061017661053d565b604051610183919061275e565b60405180910390f35b34801561019857600080fd5b506101b360048036038101906101ae9190612258565b610563565b6040516101c091906128ca565b60405180910390f35b3480156101d557600080fd5b506101de610582565b6040516101eb91906128e5565b60405180910390f35b34801561020057600080fd5b5061021b6004803603810190610216919061230f565b6105a8565b005b34801561022957600080fd5b50610244600480360381019061023f9190612281565b6107a0565b005b34801561025257600080fd5b5061026d60048036038101906102689190612281565b6107c9565b005b34801561027b57600080fd5b5061029660048036038101906102919190612140565b61084c565b005b3480156102a457600080fd5b506102ad610dd8565b6040516102ba9190612ac2565b60405180910390f35b3480156102cf57600080fd5b506102ea60048036038101906102e591906122e6565b610dec565b005b3480156102f857600080fd5b50610313600480360381019061030e919061230f565b610e58565b6040516103269796959493929190612794565b60405180910390f35b34801561033b57600080fd5b5061035660048036038101906103519190612281565b610f02565b60405161036391906128af565b60405180910390f35b34801561037857600080fd5b50610393600480360381019061038e919061230f565b610f6c565b005b3480156103a157600080fd5b506103aa6114bf565b6040516103b791906128ca565b60405180910390f35b3480156103cc57600080fd5b506103e760048036038101906103e29190612281565b6114c6565b005b61040360048036038101906103fe919061230f565b6114ef565b005b34801561041157600080fd5b5061041a6117b6565b6040516104279190612add565b60405180910390f35b34801561043c57600080fd5b506104456117c2565b604051610452919061288d565b60405180910390f35b34801561046757600080fd5b50610470611857565b60405161047d9190612779565b60405180910390f35b34801561049257600080fd5b506104ad60048036038101906104a89190612104565b61187b565b6040516104ba9190612add565b60405180910390f35b60007f7965db0b000000000000000000000000000000000000000000000000000000007bffffffffffffffffffffffffffffffffffffffffffffffffffffffff1916827bffffffffffffffffffffffffffffffffffffffffffffffffffffffff191614806105365750610535826118ac565b5b9050919050565b600360009054906101000a900473ffffffffffffffffffffffffffffffffffffffff1681565b6000806000838152602001908152602001600020600101549050919050565b600660009054906101000a900473ffffffffffffffffffffffffffffffffffffffff1681565b6004600082815260200190815260200160002060000160009054906101000a900473ffffffffffffffffffffffffffffffffffffffff1673ffffffffffffffffffffffffffffffffffffffff163373ffffffffffffffffffffffffffffffffffffffff161461064c576040517f08c379a000000000000000000000000000000000000000000000000000000000815260040161064390612a42565b60405180910390fd5b6004600082815260200190815260200160002060020160009054906101000a900467ffffffffffffffff1667ffffffffffffffff164210156106c3576040517f08c379a00000000000000000000000000000000000000000000000000000000081526004016106ba90612a82565b60405180910390fd5b6004600082815260200190815260200160002060010160009054906101000a900473ffffffffffffffffffffffffffffffffffffffff1673ffffffffffffffffffffffffffffffffffffffff1663a9059cbb3360046000858152602001908152602001600020600401546040518363ffffffff1660e01b815260040161074a929190612803565b602060405180830381600087803b15801561076457600080fd5b505af1158015610778573d6000803e3d6000fd5b505050506040513d601f19601f8201168201806040525081019061079c919061222f565b5050565b6107a982610563565b6107ba816107b5611916565b61191e565b6107c483836119bb565b505050565b6107d1611916565b73ffffffffffffffffffffffffffffffffffffffff168173ffffffffffffffffffffffffffffffffffffffff161461083e576040517f08c379a000000000000000000000000000000000000000000000000000000000815260040161083590612aa2565b60405180910390fd5b6108488282611a9b565b5050565b6000855190508086511480156108625750808551145b801561086e5750808451145b801561087a5750808351145b80156108865750808251145b6108c5576040517f08c379a00000000000000000000000000000000000000000000000000000000081526004016108bc906129e2565b60405180910390fd5b60005b81811015610d9857868181518110610909577f4e487b7100000000000000000000000000000000000000000000000000000000600052603260045260246000fd5b602002602001015167ffffffffffffffff16868281518110610954577f4e487b7100000000000000000000000000000000000000000000000000000000600052603260045260246000fd5b602002602001015167ffffffffffffffff16116109a6576040517f08c379a000000000000000000000000000000000000000000000000000000000815260040161099d90612a62565b60405180910390fd5b60008382815181106109e1577f4e487b7100000000000000000000000000000000000000000000000000000000600052603260045260246000fd5b602002602001015111610a29576040517f08c379a0000000000000000000000000000000000000000000000000000000008152600401610a2090612a22565b60405180910390fd5b60006040518060e001604052803373ffffffffffffffffffffffffffffffffffffffff168152602001868481518110610a8b577f4e487b7100000000000000000000000000000000000000000000000000000000600052603260045260246000fd5b602002602001015173ffffffffffffffffffffffffffffffffffffffff168152602001898481518110610ae7577f4e487b7100000000000000000000000000000000000000000000000000000000600052603260045260246000fd5b602002602001015167ffffffffffffffff168152602001888481518110610b37577f4e487b7100000000000000000000000000000000000000000000000000000000600052603260045260246000fd5b602002602001015167ffffffffffffffff168152602001878481518110610b87577f4e487b7100000000000000000000000000000000000000000000000000000000600052603260045260246000fd5b60200260200101518152602001858481518110610bcd577f4e487b7100000000000000000000000000000000000000000000000000000000600052603260045260246000fd5b60200260200101518152602001600081525090508060046000610bf06001611b7c565b815260200190815260200160002060008201518160000160006101000a81548173ffffffffffffffffffffffffffffffffffffffff021916908373ffffffffffffffffffffffffffffffffffffffff16021790555060208201518160010160006101000a81548173ffffffffffffffffffffffffffffffffffffffff021916908373ffffffffffffffffffffffffffffffffffffffff16021790555060408201518160010160146101000a81548167ffffffffffffffff021916908367ffffffffffffffff16021790555060608201518160020160006101000a81548167ffffffffffffffff021916908367ffffffffffffffff1602179055506080820151816003015560a0820151816004015560c08201518160050155905050600560003373ffffffffffffffffffffffffffffffffffffffff1673ffffffffffffffffffffffffffffffffffffffff168152602001908152602001600020610d546001611b7c565b9080600181540180825580915050600190039060005260206000200160009091909190915055610d846001611b8a565b508080610d9090612ea3565b9150506108c8565b507f8b27b1a9a5960fe85b0267737620545414f3bb7d104301f7ef6b397e7ebfc99333604051610dc8919061275e565b60405180910390a1505050505050565b600260009054906101000a900461ffff1681565b610df96000801b33610f02565b610e38576040517f08c379a0000000000000000000000000000000000000000000000000000000008152600401610e2f90612962565b60405180910390fd5b80600260006101000a81548161ffff021916908361ffff16021790555050565b60046020528060005260406000206000915090508060000160009054906101000a900473ffffffffffffffffffffffffffffffffffffffff16908060010160009054906101000a900473ffffffffffffffffffffffffffffffffffffffff16908060010160149054906101000a900467ffffffffffffffff16908060020160009054906101000a900467ffffffffffffffff16908060030154908060040154908060050154905087565b600080600084815260200190815260200160002060000160008373ffffffffffffffffffffffffffffffffffffffff1673ffffffffffffffffffffffffffffffffffffffff16815260200190815260200160002060009054906101000a900460ff16905092915050565b6004600082815260200190815260200160002060020160009054906101000a900467ffffffffffffffff1667ffffffffffffffff16421015610fe3576040517f08c379a0000000000000000000000000000000000000000000000000000000008152600401610fda90612a82565b60405180910390fd5b600060046000838152602001908152602001600020600501541161103c576040517f08c379a0000000000000000000000000000000000000000000000000000000008152600401611033906129a2565b60405180910390fd5b6000612710600260009054906101000a900461ffff1661ffff1660046000858152602001908152602001600020600501546110779190612cb1565b6110819190612c80565b9050806004600084815260200190815260200160002060050160008282546110a99190612d0b565b9250508190555060028054906101000a900473ffffffffffffffffffffffffffffffffffffffff1673ffffffffffffffffffffffffffffffffffffffff166108fc829081150290604051600060405180830381858888f19350505050158015611116573d6000803e3d6000fd5b5060006004600084815260200190815260200160002060010160009054906101000a900473ffffffffffffffffffffffffffffffffffffffff1673ffffffffffffffffffffffffffffffffffffffff166370a08231306040518263ffffffff1660e01b8152600401611188919061275e565b60206040518083038186803b1580156111a057600080fd5b505afa1580156111b4573d6000803e3d6000fd5b505050506040513d601f19601f820116820180604052508101906111d89190612338565b90506000600460008581526020019081526020016000206003015460046000868152602001908152602001600020600501546112149190612cb1565b905080821015611259576040517f08c379a0000000000000000000000000000000000000000000000000000000008152600401611250906129c2565b60405180910390fd5b6004600085815260200190815260200160002060010160009054906101000a900473ffffffffffffffffffffffffffffffffffffffff1673ffffffffffffffffffffffffffffffffffffffff1663095ea7b3600660009054906101000a900473ffffffffffffffffffffffffffffffffffffffff16836040518363ffffffff1660e01b81526004016112ec929190612803565b602060405180830381600087803b15801561130657600080fd5b505af115801561131a573d6000803e3d6000fd5b505050506040513d601f19601f8201168201806040525081019061133e919061222f565b50600660009054906101000a900473ffffffffffffffffffffffffffffffffffffffff1673ffffffffffffffffffffffffffffffffffffffff1663f305d71960046000878152602001908152602001600020600501546004600088815260200190815260200160002060010160009054906101000a900473ffffffffffffffffffffffffffffffffffffffff168485600460008b8152602001908152602001600020600501543062015180426113f49190612c2a565b6040518863ffffffff1660e01b81526004016114159695949392919061282c565b6060604051808303818588803b15801561142e57600080fd5b505af1158015611442573d6000803e3d6000fd5b50505050506040513d601f19601f820116820180604052508101906114679190612361565b5050507f98299536ee4caca0b61dc1cd82e3e9a4aa2c9cc1edb9b074f9f4c6ef722cf7916004600086815260200190815260200160002060050154826040516114b1929190612af8565b60405180910390a150505050565b6000801b81565b6114cf82610563565b6114e0816114db611916565b61191e565b6114ea8383611a9b565b505050565b6004600082815260200190815260200160002060010160149054906101000a900467ffffffffffffffff1667ffffffffffffffff16421015611566576040517f08c379a000000000000000000000000000000000000000000000000000000000815260040161155d90612982565b60405180910390fd5b6004600082815260200190815260200160002060020160009054906101000a900467ffffffffffffffff1667ffffffffffffffff1642106115dc576040517f08c379a00000000000000000000000000000000000000000000000000000000081526004016115d390612922565b60405180910390fd5b60006004600083815260200190815260200160002060030154346116009190612cb1565b9050600460008381526020019081526020016000206004015481111561165b576040517f08c379a000000000000000000000000000000000000000000000000000000000815260040161165290612a02565b60405180910390fd5b806004600084815260200190815260200160002060040160008282546116819190612d0b565b92505081905550346004600084815260200190815260200160002060050160008282546116ae9190612c2a565b925050819055506004600083815260200190815260200160002060010160009054906101000a900473ffffffffffffffffffffffffffffffffffffffff1673ffffffffffffffffffffffffffffffffffffffff1663a9059cbb33836040518363ffffffff1660e01b8152600401611726929190612803565b602060405180830381600087803b15801561174057600080fd5b505af1158015611754573d6000803e3d6000fd5b505050506040513d601f19601f82011682018060405250810190611778919061222f565b507fa3a187cfc249a33f6c4046e8d418886eea8564f9dd214a32aa5ba08d9602b54333826040516117aa929190612803565b60405180910390a15050565b60018060000154905081565b6060600560003373ffffffffffffffffffffffffffffffffffffffff1673ffffffffffffffffffffffffffffffffffffffff16815260200190815260200160002080548060200260200160405190810160405280929190818152602001828054801561184d57602002820191906000526020600020905b815481526020019060010190808311611839575b5050505050905090565b60028054906101000a900473ffffffffffffffffffffffffffffffffffffffff1681565b6005602052816000526040600020818154811061189757600080fd5b90600052602060002001600091509150505481565b60007f01ffc9a7000000000000000000000000000000000000000000000000000000007bffffffffffffffffffffffffffffffffffffffffffffffffffffffff1916827bffffffffffffffffffffffffffffffffffffffffffffffffffffffff1916149050919050565b600033905090565b6119288282610f02565b6119b75761194d8173ffffffffffffffffffffffffffffffffffffffff166014611ba0565b61195b8360001c6020611ba0565b60405160200161196c929190612724565b6040516020818303038152906040526040517f08c379a00000000000000000000000000000000000000000000000000000000081526004016119ae9190612900565b60405180910390fd5b5050565b6119c58282610f02565b611a9757600160008084815260200190815260200160002060000160008373ffffffffffffffffffffffffffffffffffffffff1673ffffffffffffffffffffffffffffffffffffffff16815260200190815260200160002060006101000a81548160ff021916908315150217905550611a3c611916565b73ffffffffffffffffffffffffffffffffffffffff168173ffffffffffffffffffffffffffffffffffffffff16837f2f8788117e7eff1d82e926ec794901d17c78024a50270940304540a733656f0d60405160405180910390a45b5050565b611aa58282610f02565b15611b7857600080600084815260200190815260200160002060000160008373ffffffffffffffffffffffffffffffffffffffff1673ffffffffffffffffffffffffffffffffffffffff16815260200190815260200160002060006101000a81548160ff021916908315150217905550611b1d611916565b73ffffffffffffffffffffffffffffffffffffffff168173ffffffffffffffffffffffffffffffffffffffff16837ff6391f5c32d9c69d2a47ea670b442974b53935d1edc7fd64eb21e047a839171b60405160405180910390a45b5050565b600081600001549050919050565b6001816000016000828254019250508190555050565b606060006002836002611bb39190612cb1565b611bbd9190612c2a565b67ffffffffffffffff811115611bfc577f4e487b7100000000000000000000000000000000000000000000000000000000600052604160045260246000fd5b6040519080825280601f01601f191660200182016040528015611c2e5781602001600182028036833780820191505090505b5090507f300000000000000000000000000000000000000000000000000000000000000081600081518110611c8c577f4e487b7100000000000000000000000000000000000000000000000000000000600052603260045260246000fd5b60200101907effffffffffffffffffffffffffffffffffffffffffffffffffffffffffffff1916908160001a9053507f780000000000000000000000000000000000000000000000000000000000000081600181518110611d16577f4e487b7100000000000000000000000000000000000000000000000000000000600052603260045260246000fd5b60200101907effffffffffffffffffffffffffffffffffffffffffffffffffffffffffffff1916908160001a90535060006001846002611d569190612cb1565b611d609190612c2a565b90505b6001811115611e4c577f3031323334353637383961626364656600000000000000000000000000000000600f861660108110611dc8577f4e487b7100000000000000000000000000000000000000000000000000000000600052603260045260246000fd5b1a60f81b828281518110611e05577f4e487b7100000000000000000000000000000000000000000000000000000000600052603260045260246000fd5b60200101907effffffffffffffffffffffffffffffffffffffffffffffffffffffffffffff1916908160001a905350600485901c945080611e4590612e48565b9050611d63565b5060008414611e90576040517f08c379a0000000000000000000000000000000000000000000000000000000008152600401611e8790612942565b60405180910390fd5b8091505092915050565b6000611ead611ea884612b46565b612b21565b90508083825260208201905082856020860282011115611ecc57600080fd5b60005b85811015611efc5781611ee28882611fde565b845260208401935060208301925050600181019050611ecf565b5050509392505050565b6000611f19611f1484612b72565b612b21565b90508083825260208201905082856020860282011115611f3857600080fd5b60005b85811015611f685781611f4e88826120c5565b845260208401935060208301925050600181019050611f3b565b5050509392505050565b6000611f85611f8084612b9e565b612b21565b90508083825260208201905082856020860282011115611fa457600080fd5b60005b85811015611fd45781611fba88826120ef565b845260208401935060208301925050600181019050611fa7565b5050509392505050565b600081359050611fed816132d5565b92915050565b600082601f83011261200457600080fd5b8135612014848260208601611e9a565b91505092915050565b600082601f83011261202e57600080fd5b813561203e848260208601611f06565b91505092915050565b600082601f83011261205857600080fd5b8135612068848260208601611f72565b91505092915050565b600081519050612080816132ec565b92915050565b60008135905061209581613303565b92915050565b6000813590506120aa8161331a565b92915050565b6000813590506120bf81613331565b92915050565b6000813590506120d481613348565b92915050565b6000815190506120e981613348565b92915050565b6000813590506120fe8161335f565b92915050565b6000806040838503121561211757600080fd5b600061212585828601611fde565b9250506020612136858286016120c5565b9150509250929050565b600080600080600060a0868803121561215857600080fd5b600086013567ffffffffffffffff81111561217257600080fd5b61217e88828901612047565b955050602086013567ffffffffffffffff81111561219b57600080fd5b6121a788828901612047565b945050604086013567ffffffffffffffff8111156121c457600080fd5b6121d08882890161201d565b935050606086013567ffffffffffffffff8111156121ed57600080fd5b6121f988828901611ff3565b925050608086013567ffffffffffffffff81111561221657600080fd5b6122228882890161201d565b9150509295509295909350565b60006020828403121561224157600080fd5b600061224f84828501612071565b91505092915050565b60006020828403121561226a57600080fd5b600061227884828501612086565b91505092915050565b6000806040838503121561229457600080fd5b60006122a285828601612086565b92505060206122b385828601611fde565b9150509250929050565b6000602082840312156122cf57600080fd5b60006122dd8482850161209b565b91505092915050565b6000602082840312156122f857600080fd5b6000612306848285016120b0565b91505092915050565b60006020828403121561232157600080fd5b600061232f848285016120c5565b91505092915050565b60006020828403121561234a57600080fd5b6000612358848285016120da565b91505092915050565b60008060006060848603121561237657600080fd5b6000612384868287016120da565b9350506020612395868287016120da565b92505060406123a6868287016120da565b9150509250925092565b60006123bc83836126f7565b60208301905092915050565b6123d181612d51565b82525050565b6123e081612d3f565b82525050565b60006123f182612bda565b6123fb8185612bfd565b935061240683612bca565b8060005b8381101561243757815161241e88826123b0565b975061242983612bf0565b92505060018101905061240a565b5085935050505092915050565b61244d81612d63565b82525050565b61245c81612d6f565b82525050565b61246b81612df1565b82525050565b600061247c82612be5565b6124868185612c0e565b9350612496818560208601612e15565b61249f81612f79565b840191505092915050565b60006124b582612be5565b6124bf8185612c1f565b93506124cf818560208601612e15565b80840191505092915050565b60006124e8601183612c0e565b91506124f382612f8a565b602082019050919050565b600061250b602083612c0e565b915061251682612fb3565b602082019050919050565b600061252e601883612c0e565b915061253982612fdc565b602082019050919050565b6000612551601a83612c0e565b915061255c82613005565b602082019050919050565b6000612574602483612c0e565b915061257f8261302e565b604082019050919050565b6000612597602883612c0e565b91506125a28261307d565b604082019050919050565b60006125ba602883612c0e565b91506125c5826130cc565b604082019050919050565b60006125dd601983612c0e565b91506125e88261311b565b602082019050919050565b6000612600601b83612c0e565b915061260b82613144565b602082019050919050565b6000612623602183612c0e565b915061262e8261316d565b604082019050919050565b6000612646602583612c0e565b9150612651826131bc565b604082019050919050565b6000612669601783612c1f565b91506126748261320b565b601782019050919050565b600061268c601883612c0e565b915061269782613234565b602082019050919050565b60006126af601183612c1f565b91506126ba8261325d565b601182019050919050565b60006126d2602f83612c0e565b91506126dd82613286565b604082019050919050565b6126f181612da5565b82525050565b61270081612dd3565b82525050565b61270f81612dd3565b82525050565b61271e81612ddd565b82525050565b600061272f8261265c565b915061273b82856124aa565b9150612746826126a2565b915061275282846124aa565b91508190509392505050565b600060208201905061277360008301846123d7565b92915050565b600060208201905061278e60008301846123c8565b92915050565b600060e0820190506127a9600083018a6123d7565b6127b660208301896123d7565b6127c36040830188612715565b6127d06060830187612715565b6127dd6080830186612706565b6127ea60a0830185612706565b6127f760c0830184612706565b98975050505050505050565b600060408201905061281860008301856123d7565b6128256020830184612706565b9392505050565b600060c08201905061284160008301896123d7565b61284e6020830188612706565b61285b6040830187612706565b6128686060830186612706565b61287560808301856123d7565b61288260a0830184612706565b979650505050505050565b600060208201905081810360008301526128a781846123e6565b905092915050565b60006020820190506128c46000830184612444565b92915050565b60006020820190506128df6000830184612453565b92915050565b60006020820190506128fa6000830184612462565b92915050565b6000602082019050818103600083015261291a8184612471565b905092915050565b6000602082019050818103600083015261293b816124db565b9050919050565b6000602082019050818103600083015261295b816124fe565b9050919050565b6000602082019050818103600083015261297b81612521565b9050919050565b6000602082019050818103600083015261299b81612544565b9050919050565b600060208201905081810360008301526129bb81612567565b9050919050565b600060208201905081810360008301526129db8161258a565b9050919050565b600060208201905081810360008301526129fb816125ad565b9050919050565b60006020820190508181036000830152612a1b816125d0565b9050919050565b60006020820190508181036000830152612a3b816125f3565b9050919050565b60006020820190508181036000830152612a5b81612616565b9050919050565b60006020820190508181036000830152612a7b81612639565b9050919050565b60006020820190508181036000830152612a9b8161267f565b9050919050565b60006020820190508181036000830152612abb816126c5565b9050919050565b6000602082019050612ad760008301846126e8565b92915050565b6000602082019050612af26000830184612706565b92915050565b6000604082019050612b0d6000830185612706565b612b1a6020830184612706565b9392505050565b6000612b2b612b3c565b9050612b378282612e72565b919050565b6000604051905090565b600067ffffffffffffffff821115612b6157612b60612f4a565b5b602082029050602081019050919050565b600067ffffffffffffffff821115612b8d57612b8c612f4a565b5b602082029050602081019050919050565b600067ffffffffffffffff821115612bb957612bb8612f4a565b5b602082029050602081019050919050565b6000819050602082019050919050565b600081519050919050565b600081519050919050565b6000602082019050919050565b600082825260208201905092915050565b600082825260208201905092915050565b600081905092915050565b6000612c3582612dd3565b9150612c4083612dd3565b9250827fffffffffffffffffffffffffffffffffffffffffffffffffffffffffffffffff03821115612c7557612c74612eec565b5b828201905092915050565b6000612c8b82612dd3565b9150612c9683612dd3565b925082612ca657612ca5612f1b565b5b828204905092915050565b6000612cbc82612dd3565b9150612cc783612dd3565b9250817fffffffffffffffffffffffffffffffffffffffffffffffffffffffffffffffff0483118215151615612d0057612cff612eec565b5b828202905092915050565b6000612d1682612dd3565b9150612d2183612dd3565b925082821015612d3457612d33612eec565b5b828203905092915050565b6000612d4a82612db3565b9050919050565b6000612d5c82612db3565b9050919050565b60008115159050919050565b6000819050919050565b60007fffffffff0000000000000000000000000000000000000000000000000000000082169050919050565b600061ffff82169050919050565b600073ffffffffffffffffffffffffffffffffffffffff82169050919050565b6000819050919050565b600067ffffffffffffffff82169050919050565b6000612dfc82612e03565b9050919050565b6000612e0e82612db3565b9050919050565b60005b83811015612e33578082015181840152602081019050612e18565b83811115612e42576000848401525b50505050565b6000612e5382612dd3565b91506000821415612e6757612e66612eec565b5b600182039050919050565b612e7b82612f79565b810181811067ffffffffffffffff82111715612e9a57612e99612f4a565b5b80604052505050565b6000612eae82612dd3565b91507fffffffffffffffffffffffffffffffffffffffffffffffffffffffffffffffff821415612ee157612ee0612eec565b5b600182019050919050565b7f4e487b7100000000000000000000000000000000000000000000000000000000600052601160045260246000fd5b7f4e487b7100000000000000000000000000000000000000000000000000000000600052601260045260246000fd5b7f4e487b7100000000000000000000000000000000000000000000000000000000600052604160045260246000fd5b6000601f19601f8301169050919050565b7f50726573616c652068617320656e646564000000000000000000000000000000600082015250565b7f537472696e67733a20686578206c656e67746820696e73756666696369656e74600082015250565b7f43616c6c6572206d757374206265207468652061646d696e0000000000000000600082015250565b7f50726573616c65206861736e2774207374617274656420796574000000000000600082015250565b7f4e6f20746f6b656e73207765726520626f7567687420647572696e672070726560008201527f73616c6500000000000000000000000000000000000000000000000000000000602082015250565b7f496e73756666696369656e7420746f6b656e7320666f722061206c697175696460008201527f69747920706f6f6c000000000000000000000000000000000000000000000000602082015250565b7f506172616d6574657220617272617973206d757374206265207468652073616d60008201527f65206c656e677468000000000000000000000000000000000000000000000000602082015250565b7f496e73756666696369656e7420746f6b656e20737570706c7900000000000000600082015250565b7f546f6b656e20737570706c792063616e6e6f74206265207a65726f0000000000600082015250565b7f4f6e6c792070726573616c652063726561746f722063616e207769746864726160008201527f7700000000000000000000000000000000000000000000000000000000000000602082015250565b7f456e642064617465206d7573742062652061667465722074686520737461727460008201527f2064617465000000000000000000000000000000000000000000000000000000602082015250565b7f416363657373436f6e74726f6c3a206163636f756e7420000000000000000000600082015250565b7f50726573616c65206861736e277420656e646564207965740000000000000000600082015250565b7f206973206d697373696e6720726f6c6520000000000000000000000000000000600082015250565b7f416363657373436f6e74726f6c3a2063616e206f6e6c792072656e6f756e636560008201527f20726f6c657320666f722073656c660000000000000000000000000000000000602082015250565b6132de81612d3f565b81146132e957600080fd5b50565b6132f581612d63565b811461330057600080fd5b50565b61330c81612d6f565b811461331757600080fd5b50565b61332381612d79565b811461332e57600080fd5b50565b61333a81612da5565b811461334557600080fd5b50565b61335181612dd3565b811461335c57600080fd5b50565b61336881612ddd565b811461337357600080fd5b5056fea264697066735822122058c3a5212257911ac73e4a2f3b20da7b827adf0c68bb85b3b2a3761f297f4aec64736f6c63430008040033",
  "linkReferences": {},
  "deployedLinkReferences": {}
}