{
  "_format": "hh-sol-artifact-1",
  "contractName": "Token",
  "sourceName": "contracts/Token.sol",
  "abi": [
    {
      "inputs": [],
      "stateMutability": "nonpayable",
      "type": "constructor"
    },
    {
      "anonymous": false,
      "inputs": [
        {
          "indexed": true,
          "internalType": "address",
          "name": "owner",
          "type": "address"
        },
        {
          "indexed": true,
          "internalType": "address",
          "name": "spender",
          "type": "address"
        },
        {
          "indexed": false,
          "internalType": "uint256",
          "name": "value",
          "type": "uint256"
        }
      ],
      "name": "Approval",
      "type": "event"
    },
    {
      "anonymous": false,
      "inputs": [
        {
          "indexed": true,
          "internalType": "bytes32",
          "name": "role",
          "type": "bytes32"
        },
        {
          "indexed": true,
          "internalType": "bytes32",
          "name": "previousAdminRole",
          "type": "bytes32"
        },
        {
          "indexed": true,
          "internalType": "bytes32",
          "name": "newAdminRole",
          "type": "bytes32"
        }
      ],
      "name": "RoleAdminChanged",
      "type": "event"
    },
    {
      "anonymous": false,
      "inputs": [
        {
          "indexed": true,
          "internalType": "bytes32",
          "name": "role",
          "type": "bytes32"
        },
        {
          "indexed": true,
          "internalType": "address",
          "name": "account",
          "type": "address"
        },
        {
          "indexed": true,
          "internalType": "address",
          "name": "sender",
          "type": "address"
        }
      ],
      "name": "RoleGranted",
      "type": "event"
    },
    {
      "anonymous": false,
      "inputs": [
        {
          "indexed": true,
          "internalType": "bytes32",
          "name": "role",
          "type": "bytes32"
        },
        {
          "indexed": true,
          "internalType": "address",
          "name": "account",
          "type": "address"
        },
        {
          "indexed": true,
          "internalType": "address",
          "name": "sender",
          "type": "address"
        }
      ],
      "name": "RoleRevoked",
      "type": "event"
    },
    {
      "anonymous": false,
      "inputs": [
        {
          "indexed": true,
          "internalType": "address",
          "name": "from",
          "type": "address"
        },
        {
          "indexed": true,
          "internalType": "address",
          "name": "to",
          "type": "address"
        },
        {
          "indexed": false,
          "internalType": "uint256",
          "name": "value",
          "type": "uint256"
        }
      ],
      "name": "Transfer",
      "type": "event"
    },
    {
      "inputs": [],
      "name": "DEFAULT_ADMIN_ROLE",
      "outputs": [
        {
          "internalType": "bytes32",
          "name": "",
          "type": "bytes32"
        }
      ],
      "stateMutability": "view",
      "type": "function"
    },
    {
      "inputs": [],
      "name": "MINTER_ROLE",
      "outputs": [
        {
          "internalType": "bytes32",
          "name": "",
          "type": "bytes32"
        }
      ],
      "stateMutability": "view",
      "type": "function"
    },
    {
      "inputs": [
        {
          "internalType": "address",
          "name": "account",
          "type": "address"
        }
      ],
      "name": "addMinter",
      "outputs": [],
      "stateMutability": "nonpayable",
      "type": "function"
    },
    {
      "inputs": [
        {
          "internalType": "address",
          "name": "owner",
          "type": "address"
        },
        {
          "internalType": "address",
          "name": "spender",
          "type": "address"
        }
      ],
      "name": "allowance",
      "outputs": [
        {
          "internalType": "uint256",
          "name": "",
          "type": "uint256"
        }
      ],
      "stateMutability": "view",
      "type": "function"
    },
    {
      "inputs": [
        {
          "internalType": "address",
          "name": "spender",
          "type": "address"
        },
        {
          "internalType": "uint256",
          "name": "amount",
          "type": "uint256"
        }
      ],
      "name": "approve",
      "outputs": [
        {
          "internalType": "bool",
          "name": "",
          "type": "bool"
        }
      ],
      "stateMutability": "nonpayable",
      "type": "function"
    },
    {
      "inputs": [
        {
          "internalType": "address",
          "name": "account",
          "type": "address"
        }
      ],
      "name": "balanceOf",
      "outputs": [
        {
          "internalType": "uint256",
          "name": "",
          "type": "uint256"
        }
      ],
      "stateMutability": "view",
      "type": "function"
    },
    {
      "inputs": [
        {
          "internalType": "uint256",
          "name": "amount",
          "type": "uint256"
        }
      ],
      "name": "burn",
      "outputs": [],
      "stateMutability": "nonpayable",
      "type": "function"
    },
    {
      "inputs": [],
      "name": "decimals",
      "outputs": [
        {
          "internalType": "uint8",
          "name": "",
          "type": "uint8"
        }
      ],
      "stateMutability": "view",
      "type": "function"
    },
    {
      "inputs": [
        {
          "internalType": "address",
          "name": "spender",
          "type": "address"
        },
        {
          "internalType": "uint256",
          "name": "subtractedValue",
          "type": "uint256"
        }
      ],
      "name": "decreaseAllowance",
      "outputs": [
        {
          "internalType": "bool",
          "name": "",
          "type": "bool"
        }
      ],
      "stateMutability": "nonpayable",
      "type": "function"
    },
    {
      "inputs": [
        {
          "internalType": "bytes32",
          "name": "role",
          "type": "bytes32"
        }
      ],
      "name": "getRoleAdmin",
      "outputs": [
        {
          "internalType": "bytes32",
          "name": "",
          "type": "bytes32"
        }
      ],
      "stateMutability": "view",
      "type": "function"
    },
    {
      "inputs": [
        {
          "internalType": "bytes32",
          "name": "role",
          "type": "bytes32"
        },
        {
          "internalType": "address",
          "name": "account",
          "type": "address"
        }
      ],
      "name": "grantRole",
      "outputs": [],
      "stateMutability": "nonpayable",
      "type": "function"
    },
    {
      "inputs": [
        {
          "internalType": "bytes32",
          "name": "role",
          "type": "bytes32"
        },
        {
          "internalType": "address",
          "name": "account",
          "type": "address"
        }
      ],
      "name": "hasRole",
      "outputs": [
        {
          "internalType": "bool",
          "name": "",
          "type": "bool"
        }
      ],
      "stateMutability": "view",
      "type": "function"
    },
    {
      "inputs": [
        {
          "internalType": "address",
          "name": "spender",
          "type": "address"
        },
        {
          "internalType": "uint256",
          "name": "addedValue",
          "type": "uint256"
        }
      ],
      "name": "increaseAllowance",
      "outputs": [
        {
          "internalType": "bool",
          "name": "",
          "type": "bool"
        }
      ],
      "stateMutability": "nonpayable",
      "type": "function"
    },
    {
      "inputs": [
        {
          "internalType": "address",
          "name": "to",
          "type": "address"
        },
        {
          "internalType": "uint256",
          "name": "amount",
          "type": "uint256"
        }
      ],
      "name": "mint",
      "outputs": [],
      "stateMutability": "nonpayable",
      "type": "function"
    },
    {
      "inputs": [],
      "name": "name",
      "outputs": [
        {
          "internalType": "string",
          "name": "",
          "type": "string"
        }
      ],
      "stateMutability": "view",
      "type": "function"
    },
    {
      "inputs": [
        {
          "internalType": "address",
          "name": "account",
          "type": "address"
        }
      ],
      "name": "removeMinter",
      "outputs": [],
      "stateMutability": "nonpayable",
      "type": "function"
    },
    {
      "inputs": [
        {
          "internalType": "bytes32",
          "name": "role",
          "type": "bytes32"
        },
        {
          "internalType": "address",
          "name": "account",
          "type": "address"
        }
      ],
      "name": "renounceRole",
      "outputs": [],
      "stateMutability": "nonpayable",
      "type": "function"
    },
    {
      "inputs": [
        {
          "internalType": "bytes32",
          "name": "role",
          "type": "bytes32"
        },
        {
          "internalType": "address",
          "name": "account",
          "type": "address"
        }
      ],
      "name": "revokeRole",
      "outputs": [],
      "stateMutability": "nonpayable",
      "type": "function"
    },
    {
      "inputs": [
        {
          "internalType": "bytes4",
          "name": "interfaceId",
          "type": "bytes4"
        }
      ],
      "name": "supportsInterface",
      "outputs": [
        {
          "internalType": "bool",
          "name": "",
          "type": "bool"
        }
      ],
      "stateMutability": "view",
      "type": "function"
    },
    {
      "inputs": [],
      "name": "symbol",
      "outputs": [
        {
          "internalType": "string",
          "name": "",
          "type": "string"
        }
      ],
      "stateMutability": "view",
      "type": "function"
    },
    {
      "inputs": [],
      "name": "totalSupply",
      "outputs": [
        {
          "internalType": "uint256",
          "name": "",
          "type": "uint256"
        }
      ],
      "stateMutability": "view",
      "type": "function"
    },
    {
      "inputs": [
        {
          "internalType": "address",
          "name": "recipient",
          "type": "address"
        },
        {
          "internalType": "uint256",
          "name": "amount",
          "type": "uint256"
        }
      ],
      "name": "transfer",
      "outputs": [
        {
          "internalType": "bool",
          "name": "",
          "type": "bool"
        }
      ],
      "stateMutability": "nonpayable",
      "type": "function"
    },
    {
      "inputs": [
        {
          "internalType": "address",
          "name": "sender",
          "type": "address"
        },
        {
          "internalType": "address",
          "name": "recipient",
          "type": "address"
        },
        {
          "internalType": "uint256",
          "name": "amount",
          "type": "uint256"
        }
      ],
      "name": "transferFrom",
      "outputs": [
        {
          "internalType": "bool",
          "name": "",
          "type": "bool"
        }
      ],
      "stateMutability": "nonpayable",
      "type": "function"
    }
  ],
  "bytecode": "0x60806040523480156200001157600080fd5b506040518060400160405280600981526020017f4976616e546f6b656e00000000000000000000000000000000000000000000008152506040518060400160405280600381526020017f49564e00000000000000000000000000000000000000000000000000000000008152508160039080519060200190620000969291906200027a565b508060049080519060200190620000af9291906200027a565b505050620000c76000801b33620000ff60201b60201c565b620000f97f9f2df0fed2c77648de5860a4cc508cd0818c85b8b8a1ab4ceeef8d981c8956a633620000ff60201b60201c565b6200038f565b6200011182826200011560201b60201c565b5050565b6200012782826200020760201b60201c565b620002035760016005600084815260200190815260200160002060000160008373ffffffffffffffffffffffffffffffffffffffff1673ffffffffffffffffffffffffffffffffffffffff16815260200190815260200160002060006101000a81548160ff021916908315150217905550620001a86200027260201b60201c565b73ffffffffffffffffffffffffffffffffffffffff168173ffffffffffffffffffffffffffffffffffffffff16837f2f8788117e7eff1d82e926ec794901d17c78024a50270940304540a733656f0d60405160405180910390a45b5050565b60006005600084815260200190815260200160002060000160008373ffffffffffffffffffffffffffffffffffffffff1673ffffffffffffffffffffffffffffffffffffffff16815260200190815260200160002060009054906101000a900460ff16905092915050565b600033905090565b82805462000288906200032a565b90600052602060002090601f016020900481019282620002ac5760008555620002f8565b82601f10620002c757805160ff1916838001178555620002f8565b82800160010185558215620002f8579182015b82811115620002f7578251825591602001919060010190620002da565b5b5090506200030791906200030b565b5090565b5b80821115620003265760008160009055506001016200030c565b5090565b600060028204905060018216806200034357607f821691505b602082108114156200035a576200035962000360565b5b50919050565b7f4e487b7100000000000000000000000000000000000000000000000000000000600052602260045260246000fd5b612922806200039f6000396000f3fe608060405234801561001057600080fd5b506004361061014d5760003560e01c806340c10f19116100c3578063a217fddf1161007c578063a217fddf146103c2578063a457c2d7146103e0578063a9059cbb14610410578063d539139314610440578063d547741f1461045e578063dd62ed3e1461047a5761014d565b806340c10f19146102f057806342966c681461030c57806370a082311461032857806391d148541461035857806395d89b4114610388578063983b2d56146103a65761014d565b8063248a9ca311610115578063248a9ca31461021e5780632f2ff15d1461024e5780633092afd51461026a578063313ce5671461028657806336568abe146102a457806339509351146102c05761014d565b806301ffc9a71461015257806306fdde0314610182578063095ea7b3146101a057806318160ddd146101d057806323b872dd146101ee575b600080fd5b61016c60048036038101906101679190611c40565b6104aa565b6040516101799190611fa2565b60405180910390f35b61018a610524565b6040516101979190611fd8565b60405180910390f35b6101ba60048036038101906101b59190611b9f565b6105b6565b6040516101c79190611fa2565b60405180910390f35b6101d86105d4565b6040516101e591906121ba565b60405180910390f35b61020860048036038101906102039190611b50565b6105de565b6040516102159190611fa2565b60405180910390f35b61023860048036038101906102339190611bdb565b6105f4565b6040516102459190611fbd565b60405180910390f35b61026860048036038101906102639190611c04565b610614565b005b610284600480360381019061027f9190611aeb565b61063d565b005b61028e6106b6565b60405161029b91906121d5565b60405180910390f35b6102be60048036038101906102b99190611c04565b6106bf565b005b6102da60048036038101906102d59190611b9f565b610742565b6040516102e79190611fa2565b60405180910390f35b61030a60048036038101906103059190611b9f565b6107ee565b005b61032660048036038101906103219190611c69565b610865565b005b610342600480360381019061033d9190611aeb565b610894565b60405161034f91906121ba565b60405180910390f35b610372600480360381019061036d9190611c04565b6108dc565b60405161037f9190611fa2565b60405180910390f35b610390610947565b60405161039d9190611fd8565b60405180910390f35b6103c060048036038101906103bb9190611aeb565b6109d9565b005b6103ca610a52565b6040516103d79190611fbd565b60405180910390f35b6103fa60048036038101906103f59190611b9f565b610a59565b6040516104079190611fa2565b60405180910390f35b61042a60048036038101906104259190611b9f565b610b4d565b6040516104379190611fa2565b60405180910390f35b610448610b61565b6040516104559190611fbd565b60405180910390f35b61047860048036038101906104739190611c04565b610b85565b005b610494600480360381019061048f9190611b14565b610bae565b6040516104a191906121ba565b60405180910390f35b60007f7965db0b000000000000000000000000000000000000000000000000000000007bffffffffffffffffffffffffffffffffffffffffffffffffffffffff1916827bffffffffffffffffffffffffffffffffffffffffffffffffffffffff1916148061051d575061051c82610c35565b5b9050919050565b606060038054610533906123e3565b80601f016020809104026020016040519081016040528092919081815260200182805461055f906123e3565b80156105ac5780601f10610581576101008083540402835291602001916105ac565b820191906000526020600020905b81548152906001019060200180831161058f57829003601f168201915b5050505050905090565b60006105ca6105c3610c9f565b8484610ca7565b6001905092915050565b6000600254905090565b60006105eb848484610e72565b90509392505050565b600060056000838152602001908152602001600020600101549050919050565b61061d826105f4565b61062e81610629610c9f565b610f73565b6106388383611010565b505050565b61064a6000801b336108dc565b610689576040517f08c379a00000000000000000000000000000000000000000000000000000000081526004016106809061209a565b60405180910390fd5b6106b37f9f2df0fed2c77648de5860a4cc508cd0818c85b8b8a1ab4ceeef8d981c8956a682610b85565b50565b60006012905090565b6106c7610c9f565b73ffffffffffffffffffffffffffffffffffffffff168173ffffffffffffffffffffffffffffffffffffffff1614610734576040517f08c379a000000000000000000000000000000000000000000000000000000000815260040161072b9061217a565b60405180910390fd5b61073e82826110f1565b5050565b60006107e461074f610c9f565b84846001600061075d610c9f565b73ffffffffffffffffffffffffffffffffffffffff1673ffffffffffffffffffffffffffffffffffffffff16815260200190815260200160002060008873ffffffffffffffffffffffffffffffffffffffff1673ffffffffffffffffffffffffffffffffffffffff168152602001908152602001600020546107df9190612217565b610ca7565b6001905092915050565b6108187f9f2df0fed2c77648de5860a4cc508cd0818c85b8b8a1ab4ceeef8d981c8956a6336108dc565b610857576040517f08c379a000000000000000000000000000000000000000000000000000000000815260040161084e9061205a565b60405180910390fd5b61086182826111d3565b5050565b6000811161087257600080fd5b8061087c33610894565b101561088757600080fd5b6108913382611327565b50565b60008060008373ffffffffffffffffffffffffffffffffffffffff1673ffffffffffffffffffffffffffffffffffffffff168152602001908152602001600020549050919050565b60006005600084815260200190815260200160002060000160008373ffffffffffffffffffffffffffffffffffffffff1673ffffffffffffffffffffffffffffffffffffffff16815260200190815260200160002060009054906101000a900460ff16905092915050565b606060048054610956906123e3565b80601f0160208091040260200160405190810160405280929190818152602001828054610982906123e3565b80156109cf5780601f106109a4576101008083540402835291602001916109cf565b820191906000526020600020905b8154815290600101906020018083116109b257829003601f168201915b5050505050905090565b6109e66000801b336108dc565b610a25576040517f08c379a0000000000000000000000000000000000000000000000000000000008152600401610a1c9061209a565b60405180910390fd5b610a4f7f9f2df0fed2c77648de5860a4cc508cd0818c85b8b8a1ab4ceeef8d981c8956a682610614565b50565b6000801b81565b60008060016000610a68610c9f565b73ffffffffffffffffffffffffffffffffffffffff1673ffffffffffffffffffffffffffffffffffffffff16815260200190815260200160002060008573ffffffffffffffffffffffffffffffffffffffff1673ffffffffffffffffffffffffffffffffffffffff16815260200190815260200160002054905082811015610b25576040517f08c379a0000000000000000000000000000000000000000000000000000000008152600401610b1c9061215a565b60405180910390fd5b610b42610b30610c9f565b858584610b3d91906122c7565b610ca7565b600191505092915050565b6000610b5983836114fb565b905092915050565b7f9f2df0fed2c77648de5860a4cc508cd0818c85b8b8a1ab4ceeef8d981c8956a681565b610b8e826105f4565b610b9f81610b9a610c9f565b610f73565b610ba983836110f1565b505050565b6000600160008473ffffffffffffffffffffffffffffffffffffffff1673ffffffffffffffffffffffffffffffffffffffff16815260200190815260200160002060008373ffffffffffffffffffffffffffffffffffffffff1673ffffffffffffffffffffffffffffffffffffffff16815260200190815260200160002054905092915050565b60007f01ffc9a7000000000000000000000000000000000000000000000000000000007bffffffffffffffffffffffffffffffffffffffffffffffffffffffff1916827bffffffffffffffffffffffffffffffffffffffffffffffffffffffff1916149050919050565b600033905090565b600073ffffffffffffffffffffffffffffffffffffffff168373ffffffffffffffffffffffffffffffffffffffff161415610d17576040517f08c379a0000000000000000000000000000000000000000000000000000000008152600401610d0e9061213a565b60405180910390fd5b600073ffffffffffffffffffffffffffffffffffffffff168273ffffffffffffffffffffffffffffffffffffffff161415610d87576040517f08c379a0000000000000000000000000000000000000000000000000000000008152600401610d7e9061207a565b60405180910390fd5b80600160008573ffffffffffffffffffffffffffffffffffffffff1673ffffffffffffffffffffffffffffffffffffffff16815260200190815260200160002060008473ffffffffffffffffffffffffffffffffffffffff1673ffffffffffffffffffffffffffffffffffffffff168152602001908152602001600020819055508173ffffffffffffffffffffffffffffffffffffffff168373ffffffffffffffffffffffffffffffffffffffff167f8c5be1e5ebec7d5bd14f71427d1e84f3dd0314c0f7b2291e5b200ac8c7c3b92583604051610e6591906121ba565b60405180910390a3505050565b6000610e7f848484611519565b6000600160008673ffffffffffffffffffffffffffffffffffffffff1673ffffffffffffffffffffffffffffffffffffffff1681526020019081526020016000206000610eca610c9f565b73ffffffffffffffffffffffffffffffffffffffff1673ffffffffffffffffffffffffffffffffffffffff16815260200190815260200160002054905082811015610f4a576040517f08c379a0000000000000000000000000000000000000000000000000000000008152600401610f41906120da565b60405180910390fd5b610f6785610f56610c9f565b8584610f6291906122c7565b610ca7565b60019150509392505050565b610f7d82826108dc565b61100c57610fa28173ffffffffffffffffffffffffffffffffffffffff166014611798565b610fb08360001c6020611798565b604051602001610fc1929190611f68565b6040516020818303038152906040526040517f08c379a00000000000000000000000000000000000000000000000000000000081526004016110039190611fd8565b60405180910390fd5b5050565b61101a82826108dc565b6110ed5760016005600084815260200190815260200160002060000160008373ffffffffffffffffffffffffffffffffffffffff1673ffffffffffffffffffffffffffffffffffffffff16815260200190815260200160002060006101000a81548160ff021916908315150217905550611092610c9f565b73ffffffffffffffffffffffffffffffffffffffff168173ffffffffffffffffffffffffffffffffffffffff16837f2f8788117e7eff1d82e926ec794901d17c78024a50270940304540a733656f0d60405160405180910390a45b5050565b6110fb82826108dc565b156111cf5760006005600084815260200190815260200160002060000160008373ffffffffffffffffffffffffffffffffffffffff1673ffffffffffffffffffffffffffffffffffffffff16815260200190815260200160002060006101000a81548160ff021916908315150217905550611174610c9f565b73ffffffffffffffffffffffffffffffffffffffff168173ffffffffffffffffffffffffffffffffffffffff16837ff6391f5c32d9c69d2a47ea670b442974b53935d1edc7fd64eb21e047a839171b60405160405180910390a45b5050565b600073ffffffffffffffffffffffffffffffffffffffff168273ffffffffffffffffffffffffffffffffffffffff161415611243576040517f08c379a000000000000000000000000000000000000000000000000000000000815260040161123a9061219a565b60405180910390fd5b61124f60008383611a92565b80600260008282546112619190612217565b92505081905550806000808473ffffffffffffffffffffffffffffffffffffffff1673ffffffffffffffffffffffffffffffffffffffff16815260200190815260200160002060008282546112b69190612217565b925050819055508173ffffffffffffffffffffffffffffffffffffffff16600073ffffffffffffffffffffffffffffffffffffffff167fddf252ad1be2c89b69c2b068fc378daa952ba7f163c4a11628f55a4df523b3ef8360405161131b91906121ba565b60405180910390a35050565b600073ffffffffffffffffffffffffffffffffffffffff168273ffffffffffffffffffffffffffffffffffffffff161415611397576040517f08c379a000000000000000000000000000000000000000000000000000000000815260040161138e906120fa565b60405180910390fd5b6113a382600083611a92565b60008060008473ffffffffffffffffffffffffffffffffffffffff1673ffffffffffffffffffffffffffffffffffffffff16815260200190815260200160002054905081811015611429576040517f08c379a00000000000000000000000000000000000000000000000000000000081526004016114209061203a565b60405180910390fd5b818161143591906122c7565b6000808573ffffffffffffffffffffffffffffffffffffffff1673ffffffffffffffffffffffffffffffffffffffff16815260200190815260200160002081905550816002600082825461148991906122c7565b92505081905550600073ffffffffffffffffffffffffffffffffffffffff168373ffffffffffffffffffffffffffffffffffffffff167fddf252ad1be2c89b69c2b068fc378daa952ba7f163c4a11628f55a4df523b3ef846040516114ee91906121ba565b60405180910390a3505050565b600061150f611508610c9f565b8484611519565b6001905092915050565b600073ffffffffffffffffffffffffffffffffffffffff168373ffffffffffffffffffffffffffffffffffffffff161415611589576040517f08c379a00000000000000000000000000000000000000000000000000000000081526004016115809061211a565b60405180910390fd5b600073ffffffffffffffffffffffffffffffffffffffff168273ffffffffffffffffffffffffffffffffffffffff1614156115f9576040517f08c379a00000000000000000000000000000000000000000000000000000000081526004016115f09061201a565b60405180910390fd5b611604838383611a92565b60008060008573ffffffffffffffffffffffffffffffffffffffff1673ffffffffffffffffffffffffffffffffffffffff1681526020019081526020016000205490508181101561168a576040517f08c379a0000000000000000000000000000000000000000000000000000000008152600401611681906120ba565b60405180910390fd5b818161169691906122c7565b6000808673ffffffffffffffffffffffffffffffffffffffff1673ffffffffffffffffffffffffffffffffffffffff16815260200190815260200160002081905550816000808573ffffffffffffffffffffffffffffffffffffffff1673ffffffffffffffffffffffffffffffffffffffff16815260200190815260200160002060008282546117269190612217565b925050819055508273ffffffffffffffffffffffffffffffffffffffff168473ffffffffffffffffffffffffffffffffffffffff167fddf252ad1be2c89b69c2b068fc378daa952ba7f163c4a11628f55a4df523b3ef8460405161178a91906121ba565b60405180910390a350505050565b6060600060028360026117ab919061226d565b6117b59190612217565b67ffffffffffffffff8111156117f4577f4e487b7100000000000000000000000000000000000000000000000000000000600052604160045260246000fd5b6040519080825280601f01601f1916602001820160405280156118265781602001600182028036833780820191505090505b5090507f300000000000000000000000000000000000000000000000000000000000000081600081518110611884577f4e487b7100000000000000000000000000000000000000000000000000000000600052603260045260246000fd5b60200101907effffffffffffffffffffffffffffffffffffffffffffffffffffffffffffff1916908160001a9053507f78000000000000000000000000000000000000000000000000000000000000008160018151811061190e577f4e487b7100000000000000000000000000000000000000000000000000000000600052603260045260246000fd5b60200101907effffffffffffffffffffffffffffffffffffffffffffffffffffffffffffff1916908160001a9053506000600184600261194e919061226d565b6119589190612217565b90505b6001811115611a44577f3031323334353637383961626364656600000000000000000000000000000000600f8616601081106119c0577f4e487b7100000000000000000000000000000000000000000000000000000000600052603260045260246000fd5b1a60f81b8282815181106119fd577f4e487b7100000000000000000000000000000000000000000000000000000000600052603260045260246000fd5b60200101907effffffffffffffffffffffffffffffffffffffffffffffffffffffffffffff1916908160001a905350600485901c945080611a3d906123b9565b905061195b565b5060008414611a88576040517f08c379a0000000000000000000000000000000000000000000000000000000008152600401611a7f90611ffa565b60405180910390fd5b8091505092915050565b505050565b600081359050611aa681612890565b92915050565b600081359050611abb816128a7565b92915050565b600081359050611ad0816128be565b92915050565b600081359050611ae5816128d5565b92915050565b600060208284031215611afd57600080fd5b6000611b0b84828501611a97565b91505092915050565b60008060408385031215611b2757600080fd5b6000611b3585828601611a97565b9250506020611b4685828601611a97565b9150509250929050565b600080600060608486031215611b6557600080fd5b6000611b7386828701611a97565b9350506020611b8486828701611a97565b9250506040611b9586828701611ad6565b9150509250925092565b60008060408385031215611bb257600080fd5b6000611bc085828601611a97565b9250506020611bd185828601611ad6565b9150509250929050565b600060208284031215611bed57600080fd5b6000611bfb84828501611aac565b91505092915050565b60008060408385031215611c1757600080fd5b6000611c2585828601611aac565b9250506020611c3685828601611a97565b9150509250929050565b600060208284031215611c5257600080fd5b6000611c6084828501611ac1565b91505092915050565b600060208284031215611c7b57600080fd5b6000611c8984828501611ad6565b91505092915050565b611c9b8161230d565b82525050565b611caa81612319565b82525050565b6000611cbb826121f0565b611cc581856121fb565b9350611cd5818560208601612386565b611cde81612473565b840191505092915050565b6000611cf4826121f0565b611cfe818561220c565b9350611d0e818560208601612386565b80840191505092915050565b6000611d276020836121fb565b9150611d3282612484565b602082019050919050565b6000611d4a6023836121fb565b9150611d55826124ad565b604082019050919050565b6000611d6d6022836121fb565b9150611d78826124fc565b604082019050919050565b6000611d906017836121fb565b9150611d9b8261254b565b602082019050919050565b6000611db36022836121fb565b9150611dbe82612574565b604082019050919050565b6000611dd66018836121fb565b9150611de1826125c3565b602082019050919050565b6000611df96026836121fb565b9150611e04826125ec565b604082019050919050565b6000611e1c6028836121fb565b9150611e278261263b565b604082019050919050565b6000611e3f6021836121fb565b9150611e4a8261268a565b604082019050919050565b6000611e626025836121fb565b9150611e6d826126d9565b604082019050919050565b6000611e856024836121fb565b9150611e9082612728565b604082019050919050565b6000611ea860178361220c565b9150611eb382612777565b601782019050919050565b6000611ecb6025836121fb565b9150611ed6826127a0565b604082019050919050565b6000611eee60118361220c565b9150611ef9826127ef565b601182019050919050565b6000611f11602f836121fb565b9150611f1c82612818565b604082019050919050565b6000611f34601f836121fb565b9150611f3f82612867565b602082019050919050565b611f538161236f565b82525050565b611f6281612379565b82525050565b6000611f7382611e9b565b9150611f7f8285611ce9565b9150611f8a82611ee1565b9150611f968284611ce9565b91508190509392505050565b6000602082019050611fb76000830184611c92565b92915050565b6000602082019050611fd26000830184611ca1565b92915050565b60006020820190508181036000830152611ff28184611cb0565b905092915050565b6000602082019050818103600083015261201381611d1a565b9050919050565b6000602082019050818103600083015261203381611d3d565b9050919050565b6000602082019050818103600083015261205381611d60565b9050919050565b6000602082019050818103600083015261207381611d83565b9050919050565b6000602082019050818103600083015261209381611da6565b9050919050565b600060208201905081810360008301526120b381611dc9565b9050919050565b600060208201905081810360008301526120d381611dec565b9050919050565b600060208201905081810360008301526120f381611e0f565b9050919050565b6000602082019050818103600083015261211381611e32565b9050919050565b6000602082019050818103600083015261213381611e55565b9050919050565b6000602082019050818103600083015261215381611e78565b9050919050565b6000602082019050818103600083015261217381611ebe565b9050919050565b6000602082019050818103600083015261219381611f04565b9050919050565b600060208201905081810360008301526121b381611f27565b9050919050565b60006020820190506121cf6000830184611f4a565b92915050565b60006020820190506121ea6000830184611f59565b92915050565b600081519050919050565b600082825260208201905092915050565b600081905092915050565b60006122228261236f565b915061222d8361236f565b9250827fffffffffffffffffffffffffffffffffffffffffffffffffffffffffffffffff0382111561226257612261612415565b5b828201905092915050565b60006122788261236f565b91506122838361236f565b9250817fffffffffffffffffffffffffffffffffffffffffffffffffffffffffffffffff04831182151516156122bc576122bb612415565b5b828202905092915050565b60006122d28261236f565b91506122dd8361236f565b9250828210156122f0576122ef612415565b5b828203905092915050565b60006123068261234f565b9050919050565b60008115159050919050565b6000819050919050565b60007fffffffff0000000000000000000000000000000000000000000000000000000082169050919050565b600073ffffffffffffffffffffffffffffffffffffffff82169050919050565b6000819050919050565b600060ff82169050919050565b60005b838110156123a4578082015181840152602081019050612389565b838111156123b3576000848401525b50505050565b60006123c48261236f565b915060008214156123d8576123d7612415565b5b600182039050919050565b600060028204905060018216806123fb57607f821691505b6020821081141561240f5761240e612444565b5b50919050565b7f4e487b7100000000000000000000000000000000000000000000000000000000600052601160045260246000fd5b7f4e487b7100000000000000000000000000000000000000000000000000000000600052602260045260246000fd5b6000601f19601f8301169050919050565b7f537472696e67733a20686578206c656e67746820696e73756666696369656e74600082015250565b7f45524332303a207472616e7366657220746f20746865207a65726f206164647260008201527f6573730000000000000000000000000000000000000000000000000000000000602082015250565b7f45524332303a206275726e20616d6f756e7420657863656564732062616c616e60008201527f6365000000000000000000000000000000000000000000000000000000000000602082015250565b7f43616c6c6572206d7573742062652061206d696e746572000000000000000000600082015250565b7f45524332303a20617070726f766520746f20746865207a65726f20616464726560008201527f7373000000000000000000000000000000000000000000000000000000000000602082015250565b7f43616c6c6572206d75737420626520746865206f776e65720000000000000000600082015250565b7f45524332303a207472616e7366657220616d6f756e742065786365656473206260008201527f616c616e63650000000000000000000000000000000000000000000000000000602082015250565b7f45524332303a207472616e7366657220616d6f756e742065786365656473206160008201527f6c6c6f77616e6365000000000000000000000000000000000000000000000000602082015250565b7f45524332303a206275726e2066726f6d20746865207a65726f2061646472657360008201527f7300000000000000000000000000000000000000000000000000000000000000602082015250565b7f45524332303a207472616e736665722066726f6d20746865207a65726f20616460008201527f6472657373000000000000000000000000000000000000000000000000000000602082015250565b7f45524332303a20617070726f76652066726f6d20746865207a65726f2061646460008201527f7265737300000000000000000000000000000000000000000000000000000000602082015250565b7f416363657373436f6e74726f6c3a206163636f756e7420000000000000000000600082015250565b7f45524332303a2064656372656173656420616c6c6f77616e63652062656c6f7760008201527f207a65726f000000000000000000000000000000000000000000000000000000602082015250565b7f206973206d697373696e6720726f6c6520000000000000000000000000000000600082015250565b7f416363657373436f6e74726f6c3a2063616e206f6e6c792072656e6f756e636560008201527f20726f6c657320666f722073656c660000000000000000000000000000000000602082015250565b7f45524332303a206d696e7420746f20746865207a65726f206164647265737300600082015250565b612899816122fb565b81146128a457600080fd5b50565b6128b081612319565b81146128bb57600080fd5b50565b6128c781612323565b81146128d257600080fd5b50565b6128de8161236f565b81146128e957600080fd5b5056fea2646970667358221220e43c74fdd742c410068fc126ad616c5138680964c7755c9e88cd87665b119f0164736f6c63430008040033",
  "linkReferences": {},
  "deployedLinkReferences": {}
}